S0160000414645435F4558414D504C4531322E7372656331
S214400000104A0020290C4000250C4000250C4000DA
S214400010250C4000250C4000250C40000000000048
S214400020000000000000000000000000250C40001A
S214400030250C400000000000250C4000250C400028
S214400040250C4000250C4000250C4000250C4000A7
S214400050250C4000250C4000250C4000250C400097
S214400060250C400055094000690940007D094000C4
S21440007091094000A5094000250C4000250C400091
S214400080250C4000250C4000250C4000250C400067
S214400090250C40006D024000250C4000250C400019
S2144000A0250C4000250C4000250C4000250C400047
S2144000B0250C4000250C4000590840006D084000C3
S2144000C0250C4000250C4000250C4000250C400027
S2144000D0250C4000250C4000250C4000250C400017
S2144000E0250C4000250C4000250C4000250C400007
S2144000F0250C4000250C400010B5054C237833B93C
S214400100044B13B10448AFF300800123237010BDA5
S2144001104C08002000000000DC1F40000C4B43B1A0
S2144001200C480D4910B5AFF300800C48036823B95E
S21440013010BD0A48036833B97047094B002BF7D007
S214400140BDE810401847064B002BF5D0184700BFB7
S21440015000000000DC1F400050080020DC1F40006C
S21440016000000000F0B583B005460C46002301931E
S214400170184B98420AD0184B98420FD0174B9842CB
S21440018014D0174B9D421BD003B0F0BD1F46154EF2
S21440019021463846B0470028FAD1F2E71E46114DB0
S2144001A021463046A8470028FAD1EDE71E460E4DB8
S2144001B001A93046A8470028FAD1019B2370E3E7FF
S2144001C01E46094D01A93046A8470028FAD1019B92
S2144001D02370D9E700060E400006064000000A409D
S2144001E000400A40E70B40000D0C400070B50C463E
S2144001F0184B98420AD0184B984210D0174B98424A
S21440020016D0174B98421CD0002070BD1E46154D88
S21440021021463046A8470028FAD1012070BD1E4628
S214400220104D21463046A8470028FAD1012070BD1F
S2144002301E460D4D21463046A8470028FAD10120DB
S21440024070BD1E46084D21463046A8470028FAD1C4
S214400250012070BD00060E400006064000000A4021
S21440026000400A40D70B4000F90B400010B582B062
S21440027000211248124B98470190019B114A0223D5
S2144002801360114B196805205066946E0F4820F88D
S2144002901140196803245466946E01F5806220F874
S2144002A012401A6801321A601B68B3F5806F02D399
S2144002B00022054B1A6002B010BD00BF0000094086
S2144002C0270B400000000B4068080020180900205B
S2144002D080B58EB0424B9847424B98470720424ED7
S2144002E0B047424C424B1C60424A434B1A60434A1A
S2144002F0434B1A60434D03954FF4E13304934FF458
S214400300006705970720B04703A920463E4B98470D
S214400310DFF83881D8F80030002198683B4CA04779
S214400320D8F8003000215868A047394C2046394B51
S214400330984707A8384B984707A92046374B984711
S2144003401520B047009503AB02AA29466420344ED8
S214400350B047344E039A42F4804200213046324B36
S2144003609847029AB5FBF2F2304BA3FB0232520991
S214400370002130462E4B98474FF400122D4B1A6002
S2144003801022002130462C4B9847002130462B4BFC
S2144003909847202363610823636106A8284B984743
S2144003A006AA05212046274DA84706AA032120462F
S2144003B0A84705236366E76603236366E766224A23
S2144003C0136843F4003313601032136843F4003369
S2144003D013602032136843F400331360FEE700BF17
S2144003E05104400041054000A10A400000060E406E
S2144003F028190020ED014000241900206501400026
S21440040020190020000E27079F0B4000A90F400030
S21440041000000B4081084000490740008507400027
S2144004202F0B400000000940F50A40001F85EB51A5
S214400430170B400000E100E01F0B40000F0B400090
S214400440790740001907400000140E4008000020BD
S21440045010B50E480E4B98473E2100200D4B98474E
S2144004600D4CA0470028FCD00C4B98470C4A0D4B2F
S2144004709A620D4CA0470028FCD010200B4B9847A2
S2144004800B4B98470148024B984710BD000E270774
S214400490FD0D40001D0A4000710A4000810A4000E0
S2144004A0013F132000040E40910A4000B909400065
S2144004B0F10C40002DE9F04180B90C469046002AE8
S2144004C00FDD8F18084E094D306821462B68984737
S2144004D00134BC42F8D14046BDE8F0814FF0FF38C9
S2144004E0F9E78046F7E700BF2819002020190020CA
S2144004F00138022815D82DE9F0410E4614469AB127
S2144005000D46DFF838800C4FD8F8000015F8011B70
S2144005103B68984700280ADBA81B013CF4D1BDE89D
S214400520F0814FF0FF3070471046BDE8F0814FF045
S214400530FF30BDE8F08100BF2419002028190020B4
S21440054010B54FF40042494B5A600920484CA0472A
S2144005500A20A0470B20A0470C20A0470D20A0470C
S214400560444B01221A61C3F8A0201A6342494FF453
S21440057080120A61C1F8A0200A634FF40010086197
S214400580C1F8A00008634FF400215961C3F8A010D9
S2144005905966C3F8901059651962C3F88410186FED
S2144005A020F400201867586F20F400205867C3F8DE
S2144005B0C010C3F8D410C3F8B0105A61C3F8A020D6
S2144005C05A66C3F890205A651A62C3F88420196F99
S2144005D021F480111967596F21F480115967C3F8C7
S2144005E0C020C3F8D020C3F8B02002225A61C3F816
S2144005F0A0205A66C3F890205A651A62C3F8842031
S214400600196F21F002011967596F21F002015967ED
S214400610C3F8B42004225A61C3F8A0205A66C3F82F
S21440062090205A651A62C3F88420196F21F004019D
S2144006301967596F21F004015967C3F8C020C3F801
S214400640D420C3F8B0204FF4C0621A66C3F8902096
S2144006505A655A62C3F88020196F21F4C061196741
S214400660596F21F4C06159675A6010BD50180E404A
S214400670A10A4000000E0E4000140E4070B582B035
S214400680026BC36A134001930024214DA84214BF55
S214400690002501256E002E440BE0142C24D8019A28
S2144006A004F1080101238B40134213D10134172C67
S2144006B02BD00F2CF1D8019A0123A3401342F5D03A
S2144006C0C5EBC6032344134A52F82330002BEDD023
S2144006D09847EBE7C5EBC60323440E4A52F823304F
S2144006E0002BE3D09847E1E7019A04F10901012382
S2144006F08B401342DAD0C5EBC6032344054A52F872
S2144007002330002BD2D09847D0E702B070BD00BF50
S21440071000400B402C19002030B4046E01238B405F
S21440072024EA03041578002D08BF002323430366FC
S214400730446D4B000321994024EA010451789940C6
S2144007402143416530BC704700220260084B43603D
S214400750084B83604FF48023C36002610223037515
S214400760012343758375C275037643768376704757
S214400770000E2707808D5B00002303700123437023
S21440078070470000036B13F0807F01D0192070473C
S21440079070B401230360CB7D002B14BF4FF000459F
S2144007A000258B7D002B14BF4FF4000400240B7DE6
S2144007B01B0603F070630A69CE68324313434A7DD2
S2144007C0120702F0405213438A6856004A68B2FB4A
S2144007D0F6F2013A120292B213432B43234343608C
S2144007E00B7E002B14BF4FF0807300230A68134320
S2144007F04A7E002A14BF4FF00072002213438360E3
S2144008008B7E1B0203F44073C0F894300E4B984224
S21440081005D00E4B98420CD0002070BC70470C4B55
S21440082003F15C01002243F8042F8B42FBD10020E9
S214400830F3E7084B03F15C01002243F8042F8B4298
S214400840FBD10020E9E700BF00000B4000400B4012
S214400850281900208419002008B50248024B984702
S21440086008BD00BF00000B407D06400008B50248AA
S214400870024B984708BD00BF00400B407D06400035
S21440088000B583B0134B98420CBF1F201E20124B5E
S2144008909847124B9B78FF2B1AD0EFF31083B3FA8E
S2144008A083F35B09019372B6BFF35F8F00220C4B54
S2144008B01A700199094A93780133937029B101223D
S2144008C0074B1A70BFF35F8F62B603B05DF804FB48
S2144008D0FEE700BF00400B40A10A40001819002068
S2144008E000000020C06C7047806C70472DE9F843CC
S2144008F081460F46124B984705464846114B984747
S214400900054013D0104C04F1600603E0B4420DD00D
S21440091010345DB12068B842F8D161682942F5D0FC
S214400920E3689847636825EA0305EFE7074B1B68CB
S21440093023B1074B1B680BB148469847BDE8F88380
S214400940E5084000E90840006C080020E419002053
S214400950DC08002008B509210148024B984708BD2D
S214400960000E0E40ED08400008B50A210148024B33
S214400970984708BD00100E40ED08400008B50B2112
S2144009800148024B984708BD00120E40ED08400053
S21440099008B50C210148024B984708BD00140E408C
S2144009A0ED08400008B50D210148024B984708BDA8
S2144009B000160E40ED084000174A136B23F07003F4
S2144009C018431063936E13F0080F0AD14FF4006378
S2144009D011498A6E12F0080F03D1013BF9D101206C
S2144009E070470D4A136B23F0030343F0020313636F
S2144009F0936E13F0080F0AD14FF4006306498A6ECF
S214400A0012F0080F05D1013BF9D1012070470020B4
S214400A1070470020704700BF00040E40C8B9114A16
S214400A20136A090289B223F45C1323F0030343F4E8
S214400A305C1343F001030B431362936E13F0010FF4
S214400A40FBD0084A136A43F09B7343F48033136227
S214400A50704704490B6A044A1A40044B13430B621E
S214400A60704700BF00040E40FCFFC8FE020037017E
S214400A70024B986E00F48030704700BF00040E4072
S214400A804FF00052014B9A62704700BF00040E4080
S214400A90024B986E00F00200704700BF00040E4004
S214400AA02F281ED81F280CD8114B9A690123834043
S214400AB0934318D0012303FA00F00D4B1861002031
S214400AC0704720380A4BD3F80821012383409343CC
S214400AD00BD0012303FA00F0054BC3F800010020B9
S214400AE0704701207047002070470020704700BFC5
S214400AF000040E4010B489014318022444504FF0BD
S214400B00FF319962196A5A605DF8044B7047890153
S214400B1005234350704700EB8111CA61704700EBD4
S214400B2081114A62704700EB8111086A7047F0B441
S214400B3086B002240194082402942024039480243E
S214400B4004940A9CE40B0594B0EB510F14D84C0C5B
S214400B50A04217D2012501AF57F82540B1FBF4F467
S214400B60260C84420AD386420DD90135052DF3D191
S214400B70002006B0F0BC70470020FAE70020F8E7F7
S214400B800120F6E700252AB106A901EB850151F8B8
S214400B90141C1160002BF3D01D600120E9E710B44F
S214400BA0AC2303600B684A68B3FBF2F31B095C1E78
S214400BB04FF6FE7294420CD803628B68436040F254
S214400BC00223C0F820315023036000205DF8044B18
S214400BD070470120FAE7436913F0020F1ABFC1615C
S214400BE0002001207047436913F0010F1DBF836941
S214400BF00B70002001207047436913F0020F1DBFA1
S214400C00C1F30801C161002001207047436913F019
S214400C10010F05D08369C3F308030B6000207047BB
S214400C2001207047FEE7000000B583B0254B264AFA
S214400C309A4210D0254B234A9A420CD2013B9B1A2B
S214400C4023F00303043313441F4951F8040B42F8BE
S214400C50040B9A42F9D11E4B1E4A9A420AD2013BD5
S214400C609B1A23F0030304331344002142F8041B69
S214400C709342FBD1184A194B23F07F039360EFF35E
S214400C801083B3FA83F35B09019372B6BFF35F8FA9
S214400C900022134B1A700199124A136843F47003EA
S214400CA01360BFF34F8FBFF36F8F29B101220C4BF8
S214400CB01A70BFF35F8F62B60B4B98470B4B984743
S214400CC0FEE700BF00000020DC1F40004C0800206C
S214400CD0101A00204C08002000ED00E00000400004
S214400CE00000002088ED00E0BD0E4000D10240002C
S214400CF03B4B1B6B03F00303012B1DD083B1022B30
S214400D0036D0374B1B6B03F07003702B5FD0344BE1
S214400D101A6B3449C2F302120B68D3400B6070471B
S214400D20314B5B6913F0800F14BF4FF400424FF411
S214400D30FA422C4B1A60E4E7294B1B6A13F0807F7B
S214400D4003D02A4A274B1A60DBE7294A254B1A600C
S214400D50234B1B6A03F07003102B05D0202BD0D1F9
S214400D60224A204B1A60CCE7224A1E4B1A60C8E73C
S214400D701B4B1B6A13F0807F16D01C4A194B1A6017
S214400D80174B1B6B03F00303022BBAD1144A916A2C
S214400D90926A1448C1F30A41036801FB0333D2B296
S214400DA0B3FBF2F30360ACE7114A0E4B1A600C4BF0
S214400DB01B6A03F07003102B05D0202BE0D10B4AA2
S214400DC0084B1A60DCE70B4A064B1A60D8E7054A20
S214400DD013680949A1FB03135B081360704700BF03
S214400DE000040E400400002010180E40001BB70000
S214400DF000093D0000127A00ABAAAAAA124B9842FC
S214400E0011D9124B984213D9114B984214D9114B11
S214400E10984215D9104B984294BF4FF004220F4A7F
S214400E200F4B1A6070474FF080620D4B1A60704748
S214400E300C4A0B4B1A6070470B4A094B1A607047B6
S214400E400A4A074B1A607047FF2C3101FF5962026D
S214400E50FF869303FFB3C404FFE0F50500050004D6
S214400E60000A0E40000100040002000400030004D3
S214400E700A4B1B6853B1094B1B681A180849914224
S214400E8008DB1046054A106018467047054A034B73
S214400E901A60F0E74FF0FF30704700BFE0080020D0
S214400EA0FCFF0120104A00204FF0FF3070474FF4FF
S214400EB000534B60002070470020704770B50F4EBF
S214400EC00F4D761BB61018BF002405D0013455F8D8
S214400ED0043B9847A642F9D10A4E0B4D761B01F0CB
S214400EE06BF8B61018BF002406D0013455F8043B02
S214400EF09847A642F9D170BD70BD00BFC41F4000E0
S214400F00C41F4000CC1F4000C41F400070B486077A
S214400F1046D0541E002A41D0CAB2034602E014F11D
S214400F20FF343BD303F8012B9D07F8D1032C2ED971
S214400F30CDB245EA05250F2C45EA054519D903F1FA
S214400F4010022646103E0F2E42F8105C42F80C5C0B
S214400F5042F8085C42F8045C02F11002F2D8A4F1B0
S214400F60100222F00F0204F00F041032032C134438
S214400F700DD91E462246043A032A46F8045BFAD8A0
S214400F80221F22F003020432134404F003042CB15F
S214400F90C9B21C4403F8011B9C42FBD170BC70478D
S214400FA014460346C2E700BF00290CBF02220022B7
S214400FB04FF4806300F000B82DE9F043614C25689B
S214400FC083B004460F4690461E4615B1AB6B002BC9
S214400FD064D0B8F1020F06D0B8F1010F00F29F803E
S214400FE0002EC0F29C80636ED80734D52146284632
S214400FF000F05AF9216B41B104F14003994202D006
S214401000284600F04BFA00232363B4F90C30002244
S214401010A26162601A063AD423F44A6323F00303BB
S214401020B8F1020FA3811DD001AB6A46214628467F
S21440103000F04CFBA3891843A081002E32D1009EBD
S214401040304600F071FB074600286BD0A38943F07A
S2144010508003A38128E0A3899905C7D4A06D00F03A
S21440106031FBC3E70025616E002604F1430243F0DE
S21440107002030120A660CE07A38122602261606140
S21440108001D498053ED5284603B0BDE8F0832169D3
S214401090284600F003FAB4F90C30BDE7284600F0C5
S2144010A05BF996E7002FCBD0AB6B002B33D0009B81
S2144010B0B4F90C2027609E421CBF42F40062A28115
S2144010C0B8F1010F04BF42F00102A28192B212F0C1
S2144010D00803276166610ED0D1071AD5656E764241
S2144010E0002315F00105A661A36009D00025284617
S2144010F003B0BDE8F083A360656E15F00105F5D139
S2144011009305C0D4A06D00F0DFFA284603B0BDE8D2
S214401110F083A660F0E7284600F01EF9C7E74FF0D8
S214401120FF35B0E7DDF80090B14504D0484600F002
S214401130FBFA074620B9B4F90C304FF0FF3592E77A
S2144011404E4683E708000020024B13B1024800F0E9
S21440115005B8704700000000C91340000023014650
S2144011601A46184600F010BEB1F90C309AB22DE976
S214401170F0410D46110780463AD46A6843F400634E
S214401180002AAB816FDDAC6A002C49D000229BB2AE
S214401190D8F80060C8F8002013F4805267D02A6D53
S2144011A05F0705D569682B6B521A0BB1EB6BD21AE9
S2144011B00023E9694046A047441C3CD0B5F90C30B2
S2144011C02A692A6023F400630022AB81DB046A604C
S2144011D047D4296BC8F8006011B305F14003994223
S2144011E002D0404600F05AF900202863BDE8F0815E
S2144011F02E69AEB12C682E6091070CBF6B69002338
S214401200A41BAB600AE0234632466F6AE969404653
S214401210B8470028A4EB0004064404DD002CF2DCAA
S2144012200020BDE8F081AB8943F04003AB814FF02E
S214401230FF30BDE8F081D8F800401D2CF3D8194B9C
S214401240E340DB4313F00103EDD1B5F90C206B60AE
S21440125022F400632969AB81DA042960B9D5002CF1
S214401260B7D12865B5E7EA6B002A8CDCD8E70123BE
S214401270E9694046A047431C024602D0AB89AC6AA7
S2144012808EE7D8F80030002BF8D01D2B01D0162B57
S21440129002D1C8F80060C3E7AB8943F04003AB8196
S2144012A0BDE8F0810100402038B50D46044608B13F
S2144012B0836BBBB1B5F90C0088B16B6EDB0701D40C
S2144012C0810517D520462946FFF74EFF6B6EDA0795
S2144012D0044602D4AB899B0507D5204638BD044654
S2144012E0204638BD00F038F8E4E7A86D00F0ECF989
S2144012F0204638BDA86D00F0E5F9E3E7014900F067
S214401300B3B900BF711E400010B50023044681816A
S214401310C2810360436083604366036143618361C7
S214401320194608225C30FFF7F1FD07480749084A8E
S214401330084B2062E4616162A262E36204F15800F5
S214401340BDE8104000F0BAB9D51C4000F91C40007A
S214401350351D4000551D400010B50446124800F0AB
S214401360B1F9A26BD2B904F53B731048C4F8E83221
S2144013700321C4F8E022E063C4F8E4126068042164
S214401380FFF7C2FF01220921A068FFF7BDFF022236
S2144013901221E068FFF7B8FF0123A3630248BDE8C7
S2144013A0104000F091B900BFF4190020FD12400033
S2144013B0014800F087B900BF081A0020014800F035
S2144013C083B900BF081A002038B50A4C0A4D641B82
S2144013D0A4100AD004F18043013B05EB8305013C91
S2144013E055F804399847002CF9D1BDE8384000F04C
S2144013F0EDBD00BFDC1F4000D81F4000F8B5244FAD
S2144014000C46064600F048FCBB685D68C4F57E6145
S2144014100F3125F00305294421F47F6121F00F01A7
S214401420A1F58054B4F5805F07DB0021304600F01C
S2144014303FFCBB682B44984204D0304600F032FC58
S2144014400020F8BD6142304600F032FC01300DD03D
S214401450104BBA6819682D1B45F001053046091B2C
S2144014605560196000F01EFC0120F8BD0021304692
S21440147000F01EFCBA68831A0F2BDEDD064C0549C9
S214401480246843F00103001B53600860D5E700BFA3
S2144014903C040020E408002044080020002944D0F2
S2144014A02DE9F0410D46804600F0F6FB55F8047CE9
S2144014B0694927F00103A5F10804E2188E685068D0
S2144014C0B24220F003005ED0FE0750600BD455F8C1
S2144014D0087CE41B01F1080EA56875453B446DD0B9
S2144014E0E768EF60BD6015186D68ED073ED543F0C0
S2144014F001026260E350B3F5007F17D2DB08581C48
S2144015009A104D6851F83070A7600123934001EB64
S214401510C0022B43083AE2604B6041F83040FC6022
S2144015204046BDE8F04100F0BDBB70475A0A042A69
S21440153052D89A0902F13907FF0002F13805C81956
S214401540CA59083890424FD0516821F003018B4267
S21440155032D292689042F7D1C368A060E3609C6044
S214401560C4604046BDE8F04100F09CBB95683B4FE8
S214401570BD42034440D0D068E86043F00102856035
S2144015806260E350B7E7FF07034407D455F8082CDA
S214401590A41A1344A068E268C2609060304A126899
S2144015A043F00100934260608C60B9D32D4B4046B7
S2144015B01968FFF723FFB3E71046CDE711184968CF
S2144015C0C90744D49168D268CA60034443F0010016
S2144015D091606060E350A3E7142A16D802F15C07D6
S2144015E0FF0002F15B05AAE7AA1001234D6893406D
S2144015F02B434B600346B0E743F001024C610C615D
S214401600E560A5606260E3508AE7542A06D81A0B64
S21440161002F16F07FF0002F16E0590E7B2F5AA7F70
S21440162006D8DA0B02F17807FF0002F1770586E765
S21440163040F25450824206D89A0C02F17D07FF00D1
S21440164002F17C057BE74FF47E777E2577E743F013
S21440165001016160136063E73C04002044040020FD
S21440166048080020140900202DE9F84310F5387783
S2144016701FD0884606464FF000097D68BC68013D8D
S21440168011D4A389012B05F1FF3508D9B4F90E30E2
S21440169001332146304602D0C04749EA00096B1C58
S2144016A004F16804EDD13F68002FE6D14846BDE816
S2144016B0F883B9464846BDE8F88300BF704700BF88
S2144016C0704700BF704700BF704700BF70B50C46FC
S2144016D0B1F90E10002990B015461E4614DB01AA3B
S2144016E000F028FC00280FDB029A02F47042A2F5B4
S2144016F00052B2FA82F252094FF480634FF400600F
S21440170032602B6010B070BDA289002312F08000BA
S214401710336004D0402218462A6010B070BD4FF4A3
S21440172080632B6010B070BD024B0146186800F015
S21440173003B800BF080000202DE9F04F01F10B066A
S214401740162E83B0054640F29E8036F0070600F11E
S214401750BD80B14200F2BA8000F09EFAB6F5FC7F3A
S214401760C0F09382730A00F0B880042B00F27981AF
S214401770B30903F1390003F1380EC300BF4F3B44B1
S214401780A3F108015C68A14206D10CE0002A80F271
S214401790AA80E468A14206D0636823F003039A1B3C
S2144017A00F2AF3DD70463C69DFF8E4E2744500F04A
S2144017B0AB81636823F003039A1B0F2A00F39081E2
S2144017C0002AC7F814E0C7F810E080F29D80B3F511
S2144017D0007F80F06181DB0803F1010C99107A6884
S2144017E057F83C80C4F8088001238B4007EBCC01B7
S2144017F013430839E1607B6047F83C40C8F80C402A
S2144018008210012494409C4200F28B801C4206D1F8
S21440181020F0030064001C4200F10400FAD007EBFD
S214401820C009CC468046DCF80C309C4507D16DE1BB
S214401830002A80F27B81DB689C4500F0678159680E
S21440184021F003018A1B0F2AF2DDD3F80CC0D3F82F
S214401850088000939C19284646F0010642F0010590
S2144018605E60C8F80CC0CCF808807C613C61C4F867
S2144018700CE0C4F808E065605A5000F013FA009B8C
S21440188003F108041EE0102920D800F005FA1026BF
S21440189018230220794F3B44A3F108025C68944227
S2144018A000F03D816368E168A66823F003032344A3
S2144018B028465A68F16042F001028E605A6000F095
S2144018C0F1F90834204603B0BDE8F08F00240C231D
S2144018D020462B6003B0BDE8F08F40204FF40073E5
S2144018E04FF03F0E4AE72344E1685A68A66842F044
S2144018F00102F16028468E605A6000F0D3F9083441
S214401900204603B0BDE8F08F234428465A6842F08C
S21440191001025A6000F0C6F90834204603B0BDE81C
S214401920F08FBC68636823F00308B04504D3A8EB87
S21440193006030F2B00F38580DFF85891504BD9F8FB
S21440194000201B680132334404EB080A00F055813E
S21440195003F580530F3323F47F6B2BF00F0B594660
S214401960284600F0A5F9411C024600F0FC8082455E
S21440197000F2F780434B19685944196000F04D81D6
S214401980D9F8000001301BBFA2EB0A0A5144C9F83F
S2144019900020196012F0070100F01581C1F108001F
S2144019A0C1F580510244083102EB0B09C9F30B091B
S2144019B0A1EB0909494628460193009200F078F9C0
S2144019C0431C9DE80C0000F04381801A484440F0D8
S2144019D001001968BA604944BC425060196017D08B
S2144019E0B8F10F0F40F2FB806068A8F10C0222F0BD
S2144019F0070204EB020E00F001004FF0050C104306
S214401A000F2A6060CEF804C0CEF808C000F21781F6
S214401A101D4BBC681A68914288BF19601B4B1A68F8
S214401A209142626888BF196022F003029642A2EB98
S214401A30060301D80F2B04DC284600F033F90024B7
S214401A4040E7A21943F0010346F0010666602846C7
S214401A50BA60536000F026F90834204603B0BDE86B
S214401A60F08F142B71D9542B00F2A380330B03F163
S214401A706F0003F16E0EC30080E600BF3C040020FA
S214401A8014090020E40800200C090020100900205A
S214401A9044040020440800205A0A042A5BD9142A29
S214401AA000F2AE8002F15C01C9005B3207EB010C2C
S214401AB07958ACF1080C8C4500F088804A6822F0D2
S214401AC00302934273D289688C45F7D1DCF80C2028
S214401AD07B68E260C4F808C09460CCF80C408FE69F
S214401AE0A11946F0010C42F00106C4F804C028468D
S214401AF079613961C1F80CE0C1F808E04E60E25007
S214401B0000F0D0F80834DDE67B6879E608F1010895
S214401B1018F0030F0CF1080C7FF485AE2DE0DC685E
S214401B20A34208BF02303FF43EAEBBE619441C4613
S214401B304A68DB6854F8086F42F001024A6028465B
S214401B40F3609E6000F0AEF8BCE603F15C0003F183
S214401B505B0EC30012E69A0902F13901C900383219
S214401B60A4E7BC4254D0BC68626822F003025DE73A
S214401B7059F80839994540F0868010F0030F00F177
S214401B80FF30F5D17B6823EA04037B6064009C4207
S214401B903FF6C7AE002C3FF4C4AE1C4240467FF42E
S214401BA03EAE64001C4200F10400FAD037E68C4694
S214401BB08CE7B3F5AA7F15D8F30B03F1780003F151
S214401BC0770EC300DAE54FF48051EDE67B6892105D
S214401BD0012101FA02F213437B60624679E7012352
S214401BE0536029E740F25452934222D8B30C03F193
S214401BF07D0003F17C0EC300C0E503F1100BAEE69A
S214401C00542A29D81A0B02F16F01C9006E324DE7EB
S214401C10204B196859441960B2E6CAF30B000028F5
S214401C207FF4AEAE08EB0B03BA6843F00103536093
S214401C30EEE67F204FF47E734FF07E0E9EE504F175
S214401C40080128460093FFF729FC009B1968DFE649
S214401C5001204FF00009BCE6B2F5AA7F05D8DA0BA2
S214401C6002F17801C900773220E740F254518A42A7
S214401C7005D89A0C02F17D01C9007C3216E74FF474
S214401C807E717E2212E77B6880E7F00806F1080343
S214401C9000E600BFE40800200148FFF713BD00BF80
S214401CA0F81900200148FFF70FBD00BFF8190020C3
S214401CB038B5074C0023054608462360FFF7D8F89A
S214401CC0431C00D038BD2368002BFBD02B6038BDAA
S214401CD00C1A002010B50C46B1F90E1000F054F95D
S214401CE0002803DB236D0344236510BDA38923F43A
S214401CF08053A38110BD00BF2DE9F0411646B1F9CF
S214401D000C201F46D3050C46054607D50022022365
S214401D10B1F90E1000F022F9B4F90C20B4F90E1007
S214401D2022F48052A2813B4632462846BDE8F04126
S214401D3000F014B810B50C46B1F90E1000F00EF9CC
S214401D40A389421C0EBF23F4805343F4805320657E
S214401D50A38110BDB1F90E1000F078B870B50D46ED
S214401D60084C114606461A46284600232360FEF7CE
S214401D70BFFB431C00D070BD2368002BFBD03360F4
S214401D8070BD00BF0C1A00202DE9F8432C4D0646C6
S214401D90286898460F469146FFF794FC294B1C68E6
S214401DA0D4F84831002B3ED05A681F2A1CDC02F17A
S214401DB0010E76B103EB82010124C1F88890D3F876
S214401DC0880194402043022EC3F88801C1F8088158
S214401DD023D00232C3F804E0286843F82270FFF7A5
S214401DE073FC0020BDE8F883174B0BB34FF4C87064
S214401DF0FFF79AFC0346D8B1D4F848210260002188
S214401E0041600A46C4F848014FF0010EC0F88811F8
S214401E10C0F88C11002EDCD0CCE7D3F88C110C43E4
S214401E20C3F88C41D5E704F5A673C4F84831BBE740
S214401E302868FFF749FC4FF0FF30BDE8F88300BF45
S214401E4038040020B41F40002917400038B5074C1E
S214401E500023054608462360FFF726F8431C00D0BB
S214401E6038BD2368002BFBD02B6038BD0C1A0020F1
S214401E7070B559B105460C4610B1836B002B3CD06B
S214401E80636ED80705D5B4F90C302BB9002630461A
S214401E9070BDA38999053CD521462846FFF764F9CD
S214401EA0E36A064633B1E169284698470028B8BF3A
S214401EB04FF0FF36A3891A0622D4216B41B104F1B4
S214401EC04003994202D02846FFF7E8FA00232363EE
S214401ED0616C21B12846FFF7E1FA00236364FFF7FF
S214401EE067FA636E0022DB07A2810ED5A06DFFF76E
S214401EF0E7FBFFF763FA304670BDFFF72DFABFE702
S214401F0021692846FFF7CAFAD7E7A06DFFF7DCFB42
S214401F10ECE7A06DFFF7D6FBB4F90C30002BBBD135
S214401F20666E16F00106B1D1A06DFFF7CDFB3046C8
S214401F3070BD00BF38B50B46074C054611461846DF
S214401F4000232360FEF7B3FF431C00D038BD236850
S214401F50002BFBD02B6038BD0C1A002070B50D4608
S214401F60084C114606461A46284600232360FEF7CC
S214401F70A3FF431C00D070BD2368002BFBD033600A
S214401F8070BD00BF0C1A002070B50D46084C1146B7
S214401F9006461A46284600232360FEF78BFA431C63
S214401FA000D070BD2368002BFBD0336070BD00BFEF
S214401FB00C1A002010000020F8B500BFF8BC08BC82
S214401FC09E467047491140001D014000F8B500BFCD
S210401FD0F8BC08BC9E467047F900400074
S214401FDC0100000000093D00100000200000000039
S214401FEC00000000FC02002064030020CC0300200C
S214401FFC0000000000000000000000000000000090
S21440200C000000000000000000000000000000007F
S21440201C000000000000000000000000000000006F
S21440202C000000000000000000000000000000005F
S21440203C000000000000000000000000000000004F
S21440204C000000000000000000000000000000003F
S21440205C000000000000000000000000000000002F
S21440206C000000000000000000000000000000001F
S21440207C000000000000000000000000000000000F
S21440208C00000000000000000100000000000000FE
S21440209C0E33CDAB34126DE6ECDE05000B000000C3
S2144020AC00000000000000000000000000000000DF
S2144020BC00000000000000000000000000000000CF
S2144020CC00000000000000000000000000000000BF
S2144020DC00000000000000000000000000000000AF
S21440240C0000000000000000E8190020000000005A
S21440241C000000003C0400203C0400204404002043
S21440242C440400204C0400204C040020540400209B
S21440243C540400205C0400205C040020640400204B
S21440244C640400206C0400206C04002074040020FB
S21440245C740400207C0400207C04002084040020AB
S21440246C840400208C0400208C040020940400205B
S21440247C940400209C0400209C040020A40400200B
S21440248CA4040020AC040020AC040020B4040020BB
S21440249CB4040020BC040020BC040020C40400206B
S2144024ACC4040020CC040020CC040020D40400201B
S2144024BCD4040020DC040020DC040020E4040020CB
S2144024CCE4040020EC040020EC040020F40400207B
S2144024DCF4040020FC040020FC040020040500202A
S2144024EC040500200C0500200C05002014050020D7
S2144024FC140500201C0500201C0500202405002087
S21440250C240500202C0500202C0500203405002036
S21440251C340500203C0500203C05002044050020E6
S21440252C440500204C0500204C0500205405002096
S21440253C540500205C0500205C0500206405002046
S21440254C640500206C0500206C05002074050020F6
S21440255C740500207C0500207C05002084050020A6
S21440256C840500208C0500208C0500209405002056
S21440257C940500209C0500209C050020A405002006
S21440258CA4050020AC050020AC050020B4050020B6
S21440259CB4050020BC050020BC050020C405002066
S2144025ACC4050020CC050020CC050020D405002016
S2144025BCD4050020DC050020DC050020E4050020C6
S2144025CCE4050020EC050020EC050020F405002076
S2144025DCF4050020FC050020FC0500200406002025
S2144025EC040600200C0600200C06002014060020D2
S2144025FC140600201C0600201C0600202406002082
S21440260C240600202C0600202C0600203406002031
S21440261C340600203C0600203C06002044060020E1
S21440262C440600204C0600204C0600205406002091
S21440263C540600205C0600205C0600206406002041
S21440264C640600206C0600206C06002074060020F1
S21440265C740600207C0600207C06002084060020A1
S21440266C840600208C0600208C0600209406002051
S21440267C940600209C0600209C060020A406002001
S21440268CA4060020AC060020AC060020B4060020B1
S21440269CB4060020BC060020BC060020C406002061
S2144026ACC4060020CC060020CC060020D406002011
S2144026BCD4060020DC060020DC060020E4060020C1
S2144026CCE4060020EC060020EC060020F406002071
S2144026DCF4060020FC060020FC0600200407002020
S2144026EC040700200C0700200C07002014070020CD
S2144026FC140700201C0700201C070020240700207D
S21440270C240700202C0700202C070020340700202C
S21440271C340700203C0700203C07002044070020DC
S21440272C440700204C0700204C070020540700208C
S21440273C540700205C0700205C070020640700203C
S21440274C640700206C0700206C07002074070020EC
S21440275C740700207C0700207C070020840700209C
S21440276C840700208C0700208C070020940700204C
S21440277C940700209C0700209C070020A4070020FC
S21440278CA4070020AC070020AC070020B4070020AC
S21440279CB4070020BC070020BC070020C40700205C
S2144027ACC4070020CC070020CC070020D40700200C
S2144027BCD4070020DC070020DC070020E4070020BC
S2144027CCE4070020EC070020EC070020F40700206C
S2144027DCF4070020FC070020FC070020040800201B
S2144027EC040800200C0800200C08002014080020C8
S2144027FC140800201C0800201C0800202408002078
S21440280C240800202C0800202C0800203408002027
S21040281C34080020FFFFFFFF0000020011
S804400C2986
